:020000040800F2
:1000000050070020D10100087B06000811060008F7
:10001000790600082D040008210C000800000000EB
:1000200000000000000000000000000009080008B7
:100030002F04000800000000F5060008E901000890
:10004000EB010008EB010008EB010008EB010008E0
:10005000EB010008EB01000831040008EB01000887
:1000600059040008EB01000899040008EB0100089E
:10007000EB010008EB010008EB010008EB010008B0
:10008000EB010008EB010008EB010008EB010008A0
:10009000EB010008EB010008EB010008EB01000890
:1000A000EB010008EB010008EB010008EB01000880
:1000B00005090008EB010008EB010008EB0100084E
:1000C000EB010008EB010008EB010008EB01000860
:1000D000EB010008850A0008EB010008EB010008AD
:1000E000EB010008EB010008EB010008EB01000840
:1000F000EB010008EB010008EB010008EB01000830
:10010000EB010008EB010008EB010008EB0100081F
:10011000EB010008EB010008EB010008EB0100080F
:10012000EB010008EB010008EB010008EB010008FF
:1001300000F002F800F03CF80AA090E8000C8244BD
:100140008344AAF10107DA4501D100F031F8AFF29A
:10015000090EBAE80F0013F0010F18BFFB1A43F0A5
:1001600001031847280C0000480C0000103A24BF77
:1001700078C878C1FAD8520724BF30C830C144BF0C
:1001800004680C607047000000230024002500264E
:10019000103A28BF78C1FBD8520728BF30C148BFEA
:1001A0000B607047002070471FB51FBD10B510BD14
:1001B00000F00AF91146FFF7F7FF00F061FD00F0CB
:1001C00028F903B4FFF7F2FF03BC00F031FD000093
:1001D0000948804709480047FEE7FEE7FEE7FEE7DB
:1001E000FEE7FEE7FEE7FEE7FEE7FEE70448054917
:1001F000054A064B70470000B508000831010008A9
:100200005001002050070020500300205003002020
:10021000704700000FB4044910B503AA029800F01B
:10022000A5F810BC5DF814FB0C0000202DE9F05F70
:10023000894604464FF0000ADFF824B1FB44C0F8B9
:1002400020A02046E168884700287DD0252806D0D8
:10025000D4E901219047206A401C2062F1E7002583
:100260005F462046E16888472028064607DB312E96
:1002700005D2B81910F8200C08B10543F1E7A8071A
:1002800001D525F00405C4F81CA00027C4F818A067
:100290002A2E09D0304600F0C4FC38B304EB87089E
:1002A000303EC8F8186019E059F8041B204604EBEA
:1002B00087029161E1688847012F064618D1E069FD
:1002C000002820DA25F020051DE0D8F8180000EB02
:1002D000800006EB40003038C8F818002046E1687E
:1002E0008847064600F09DFC0028EED1012F0AD079
:1002F0002E2E08D12046E16888477F1C0646022F33
:1003000045F02005C4DBA069002803DA404245F02F
:100310000105A061E80701D025F01005A6B1A6F1FE
:100320004100192802D8203645F400654A46314676
:10033000204625604D46FFF735FF60B1012807D004
:10034000ED1D25F0070000E007E000F1080978E75F
:1003500005F1040975E730467AE7206ABDE8F09FA9
:10036000380B00007047704770477047074B70B5F7
:100370000D467B4400F011F80446284600F020F8B2
:1003800010B14FF0FF3070BD204670BDF308000083
:1003900001694A1C02610878704700B58FB0CDE949
:1003A00001310021059105497944CDE90310114639
:1003B0006846FFF73BFF0FB000BD0000E5FFFFFF01
:1003C000007B00F080007047754600F02BF8AE46C9
:1003D00005006946534620F00700854618B020B551
:1003E000FFF704FFBDE820404FF000064FF0000784
:1003F0004FF000084FF0000B21F00701AC46ACE8CD
:10040000C009ACE8C009ACE8C009ACE8C0098D4639
:10041000704710B50446AFF300802046BDE8104099
:10042000FFF7CFBE00487047EC000020FEE77047A2
:1004300010B5052000F0FEFB0649D1F8A00138B147
:100440000020C1F8A001BDE81040012000F038B83C
:100450000120F6E70080214210B5052000F0EAFBFC
:100460000B49D1F8940170B10020C1F894010949F9
:10047000D1F8940148B10020C1F89401BDE81040C2
:10048000042000F01DB80120EFE70120F4E7000090
:10049000008021420000234210B5052000F0CAFB75
:1004A0000649D1F8940138B10020C1F89401BDE8A3
:1004B0001040102000F004B80120F6E7008021422F
:1004C00001490860704700001404014070B586B00F
:1004D0000121042000F01CF90121080300F018F9A3
:1004E000E020ADF8140018208DF817001D4D0126EE
:1004F0008DF8166005A9284600F038F81024ADF8EC
:1005000014408DF817408DF8166005A9284600F0B4
:100510002DF80021ADF800104FF48270ADF80810EE
:10052000ADF802006001ADF80A00ADF80C40ADF87E
:10053000061007200C4EADF80410ADF80E10ADF803
:1005400010006946304600F043F90121304600F0C2
:1005500035F92021284600F057F802481030046091
:1005600006B070BD0008014000300140F0B5CC7805
:10057000002204F00F03E40601D58C7823430C78A5
:100580004FF00F0C14F0FF0F4FF0010E1BD0056859
:100590000E880EFA02F42640A64210D196000CFAFC
:1005A00006F725EA070703FA06F5CE783D43282E1D
:1005B00002D0482E02D002E0446100E00461521CE7
:1005C000082AE5D305600A88FF2A1CD9446800225E
:1005D00002F108060EFA06F50E882E40AE420ED144
:1005E00096000CFA06F7BC4303FA06F7CE783C43B4
:1005F000282E00D14561CE78482E00D10561521CCD
:10060000082AE5D34460F0BD41617047016170473D
:1006100001A0FFF7FFFDFBE7486172644661756C5E
:10062000740D0A0038B50121082000F071F801218D
:10063000402000F06DF82020ADF8000010208DF86B
:10064000030003200A4C8DF8020069462046FFF79C
:100650008DFF084D69462846FFF788FF2021204678
:10066000FFF7D4FF20212846FFF7D0FF38BD000058
:10067000000C014000180140FEE7704730B50F2321
:10068000C27801780125F2B1144A126801F1E02123
:1006900002F4E062C2F5E062120AC2F10404D3403F
:1006A0004278A24084781C401443220181F800243F
:1006B000007800F01F018D404009800000F1E0202B
:1006C000C0F8005130BD01F01F008540480980008E
:1006D00000F1E020C0F8805130BD00000CED00E0DA
:1006E0000249084302490860704700000000FA050B
:1006F0000CED00E070470000044A0029D16901D0E8
:10070000014300E08143D1617047000000100240C6
:10071000044A0029916901D0014300E081439161BD
:10072000704700000010024030B5204A5168204B4D
:1007300011F00C0103D0042901D0082901D0036075
:1007400012E05168536801F470114FF0020413F481
:10075000803F04EB914102D053689B0301D5154BB8
:1007600000E0134B5943016051680F2303EA111154
:10077000114B5C5C0168E14041605468072505EA63
:1007800014241C5D21FA04F48460546805EAD4241E
:100790001B5DD940C1605268032303EA9232064BC5
:1007A0001B1F9A5CB1FBF2F1016130BD00100240E9
:1007B00000127A0000093D00140000200029018881
:1007C00002D041F0400101E021F04001018070477A
:1007D00030B502884C8802F441530A88CD88224300
:1007E0008C882C4322430C8922434C8922438C89D8
:1007F0002243CC8922431A430280828B22F4006276
:100800008283098A018230BD704700000CB5002246
:10081000264800920192016841F4803101604FF452
:10082000A063016801F4003101910099491C009115
:10083000019911B900999942F3D10168890333D51F
:10084000012101911A490A6842F010020A600A68FF
:1008500022F003020A600A6842F002020A6041685C
:10086000416041684160416841F480614160416894
:1008700021F47C114160416841F4E8114160016854
:1008800041F08071016001688901FCD5416821F067
:1008900003014160416841F0020141604168C1F3D8
:1008A00081010229FAD10CBD01920CBD0010024059
:1008B000002002400F4810B5016841F001010160BD
:1008C00041680D4A1140416001680C4A11400160C5
:1008D000016821F480210160416821F4FE0141603A
:1008E0004FF41F018160FFF791FF05494FF0006051
:1008F000086010BD001002400000FFF8FFFFF6FE88
:1009000008ED00E010B501218C07204600F057F8F3
:1009100000280ED00121204600F044F80648016866
:10092000143101600549D1F8940118B10020C1F8D3
:10093000940110BD0120FAE70000002000002342CE
:100940007FB50C46054601210846FFF7D5FE641E1B
:10095000ADF8004000206D1EADF802004FF080445D
:10096000ADF804506946204600F03EF801212046CB
:1009700000F018F801221146204600F02CF81C2146
:100980008DF80C1002218DF80E108DF80D1001203D
:100990008DF80F0003A8FFF771FE0121204600F03B
:1009A00004F87FBDC943018270470029018802D045
:1009B00041F0010101E021F0010101807047024690
:1009C0000020138A92890B4202EA010202D0002A17
:1009D00000D001207047002A828901D00A4300E03C
:1009E0008A4382817047000030B502881B4C1C4D41
:1009F000A0420DD0A8420BD0B0F1804F08D0194BC7
:100A0000984205D0184B984202D0184B984203D117
:100A100022F070034A881A43154B984206D0154BB2
:100A2000984203D022F44073CA881A4302808A880D
:100A300082850A880285A0420AD0A84208D00E4AC0
:100A4000904205D00D4A904202D00D4A904201D109
:100A5000097A01860121818230BD0000002C01400D
:100A6000003401400004004000080040000C004039
:100A700000100040001400400040014000440140CC
:100A80000048014070B5154C40F22551204600F059
:100A900035F800280ED0204600F0BEF8104AC1B24A
:100AA0001088030406D444044FF0000306D50A2935
:100AB00001D0138070BD40F400400DE00D2909D035
:100AC000C0F30D04074D401C80B229551080C72883
:100AD000EFD870BD40F48040108070BD00380140F8
:100AE00008000020240000200029818902D041F460
:100AF000005101E021F400518181704770B501F08F
:100B00001F0501260024C1F3421306FA05F2012B4A
:100B10000FD0022B0FD0838A4FEA11210088134295
:100B200006FA01F600EA060001D000B101242046D1
:100B300070BD8389F0E7038AEEE710B5C1F3421375
:100B400001F01F040121A140012B07D0022B07D087
:100B50001430002A026805D00A4304E00C30F8E79C
:100B60001030F6E78A43026010BD000030B504463D
:100B7000008A85B00D464CF6FF710840E9880143B4
:100B80002182A0894EF6F3110840A9882A891143D1
:100B90006A8902431143A181A08A4FF6FF410840B0
:100BA000A9890143A1826846FFF7BEFD1948844226
:100BB00001D1039800E00298A189090400EBC0016B
:100BC00001EB0010296801D5490000E08900B0FB65
:100BD000F1F06422B0FBF2F109010B096FF0180586
:100BE0006B4300EB8300A3891D044FF0320306D54D
:100BF00003EBC000B0FBF2F000F0070005E003EBF0
:100C00000010B0FBF2F000F00F000843208105B0A7
:100C100030BD0000003801408088C0F308007047F4
:100C2000FEE730380A2801D20120704700207047C3
:100C3000704700000B49498848434FF0E021486164
:100C400000238B61086940F0010008610869C20750
:100C500001D0C003FAD5086920F0010008618B615A
:100C6000704700000400002004490A885206FCD5A1
:100C7000024AC1B2121D11807047000000380140C5
:100C800010B54FF4A060FFF72BFD64214FF4E15045
:100C9000FFF756FEFFF7C6FC4FF4E13000F01CF8FA
:100CA00003A0FFF7B7FAFFF711FC002010BD00000A
:100CB0002A2A2A2A2A2A2A2A2A2A2A2A2A2A2A2A94
:100CC0002A2A2A2A2A2A2A2A2A2A2A2A2A2A2A2A84
:100CD0002A2A2A0D0A00000070B5054686B00121B7
:100CE00044F20400FFF714FD4FF40070ADF810005B
:100CF00003248DF8124018201D4E8DF8130004A90E
:100D00003046FFF733FC3015ADF8100004208DF8A5
:100D1000130004A93046FFF729FC25208DF81400A4
:100D20008DF815408DF8164001208DF8170005A8A4
:100D3000FFF7A4FC0020ADF80400ADF80600ADF804
:100D40000800ADF80C000C200A4CADF80A00009524
:100D500069462046FFF70AFF012240F2255120464E
:100D6000FFF7EBFE01212046FFF7BEFE06B070BD87
:100D700000080140003801400400000800000000A5
:100D8000000000020001000010000000AC0D00088F
:100D900000000020240000006C010008D00D0008B5
:100DA000240000202C07000088010008000000003B
:100DB000000000000000000000000000020406081F
:100DC00000000000010203040102030406070809F1
:04000005080001D11D
:00000001FF
